:100000000C942A000C9447000C9447000C94470071
:100010000C9447000C9447000C9447000C94470044
:100020000C9447000C9447000C9447000C94470034
:100030000C9447000C9447000C9447000C94470024
:100040000C9447000C9447000C9447000C94470014
:100050000C94470011241FBECFE5D8E0DEBFCDBF12
:1000600010E0A0E6B0E0EEEEF5E002C005900D92E3
:10007000A637B107D9F720E0A6E7B0E001C01D928E
:10008000AA37B207E1F70E941F010C94F5020C9405
:10009000000082B3806482BB82B38F7B82BB0895F1
:1000A000CF93C82F85B39C2F907F8F70892B85BBF2
:1000B0000E94490028E72A95F1F720E1C29FC0017C
:1000C000112495B39F70892B85BB0E94490088E756
:1000D0008A95F1F7CF910895CF93C82F8BB38460A1
:1000E0008BBB85B39C2F907F8F70892B85BB0E9423
:1000F000490028E72A95F1F720E1C29FC0011124A9
:1001000095B39F70892B85BB0E9449008BB38B7F71
:100110008BBB88E78A95F1F7CF91089581E00E9423
:1001200050008FE99FE00197F1F700C000000895AB
:100130008BB38B7F8BBB85B38F7085BB82B38F7B7B
:1001400082BB8AB384608ABB84B3806F84BB81B373
:10015000806481BB8FE39CE90197F1F700C0000048
:1001600085B38F70806385BB0E9449008FE097E262
:100170000197F1F700C0000085B38F70806385BBE5
:100180000E9449008BED90E00197F1F700C000005C
:1001900085B38F70806385BB0E9449008BED90E032
:1001A0000197F1F700C0000085B38F70806285BBB6
:1001B0000E9449008BED90E00197F1F700C000002C
:1001C00088E20E94500086E00E9450008FE00E946A
:1001D00050000E948E000895623031F0633031F09B
:1001E000613029F4805C03C08C5E01C08A5A80684B
:1001F0000E9450008AE68A95F1F700C00895CF93D7
:10020000DF93D82FC0E007C084E10E94500088E748
:100210008A95F1F7CF5FCD17B8F3DF91CF910895AD
:10022000CF93DF93FC0103C00E946C00FE01EF013D
:10023000219680818111F8CFDF91CF910895CF92DF
:10024000DF92EF92FF920F931F93CF93DF93CDB77F
:10025000DEB760970FB6F894DEBF0FBECDBF0E9429
:10026000980081E60E946C0082E60E946C0083E6A2
:100270000E946C0081E00E94FF0082E790E00E94F3
:10028000100161E080E00E94EC008BE0E6E6F0E027
:100290008E010F5F1F4FD80101900D928A95E1F7F3
:1002A0007E018CE0E80EF11C4AE0B70189E390E39F
:1002B0000E94C002F70101900020E9F73197CF01B9
:1002C0008E199F09F80101900020E9F73197E01B92
:1002D000F10B8E0F9F1F01960E948D016C01B701DB
:1002E0000E94B902B801C6010E94AE02C6010E9476
:1002F0001001C6010E94250280E090E060960FB6D2
:10030000F894DEBF0FBECDBFDF91CF911F910F914B
:10031000FF90EF90DF90CF9008950F931F93CF93AE
:10032000DF938230910510F482E090E0E091780054
:10033000F091790020E030E0A0E0B0E0309719F1D2
:10034000408151810281138148175907C8F08417F1
:10035000950769F4109731F012960C931297139643
:100360001C9327C0009378001093790022C02115B8
:10037000310519F04217530718F49A01BD01EF0136
:10038000DF01F801DBCF21153105F9F0281B390B0E
:100390002430310580F48A819B816115710521F03B
:1003A000FB019383828304C090937900809378004B
:1003B000FE01329644C0FE01E20FF31F8193919338
:1003C00022503109398328833AC020917600309138
:1003D0007700232B41F42091620030916300309329
:1003E0007700209376002091600030916100211504
:1003F000310541F42DB73EB740916400509165003E
:10040000241B350BE0917600F0917700E217F3079B
:10041000A0F42E1B3F0B2817390778F0AC014E5F74
:100420005F4F2417350748F04E0F5F1F509377003A
:10043000409376008193919302C0E0E0F0E0CF0119
:10044000DF91CF911F910F910895CF93DF93009784
:1004500009F481C0FC01329713821282A0917800C6
:10046000B0917900109781F420813181820F931F20
:1004700020917600309177002817390751F5F093D5
:100480007700E093760067C0ED0120E030E0CE1702
:10049000DF0740F44A815B819E0141155105F1F06F
:1004A000EA01F5CFD383C28340815181840F951F28
:1004B000C817D90759F488819981840F951F02962E
:1004C000918380838A819B81938382832115310567
:1004D00029F4F0937900E09378003DC0E901FB83B3
:1004E000EA8349915991C40FD51FEC17FD0761F4B8
:1004F00080819181840F951F0296E90199838883F9
:10050000828193819B838A83E0E0F0E012968D9153
:100510009C911397009719F0FD01DC01F7CF8D91A5
:100520009C9111979D012E5F3F4F820F931F209149
:100530007600309177002817390769F4309729F44D
:10054000109279001092780002C013821282B09348
:100550007700A0937600DF91CF910895FB01DC0135
:100560000D900020E9F7119701900D920020E1F71E
:100570000895FB01DC0101900D920020E1F7089540
:10058000BB274A3031F4992322F4BDE2909581953E
:100590009F4F0C94CC02BB27FB015527AA27880F3D
:1005A000991FAA1FA41710F0A41B83955051B9F7E7
:1005B000A05DAA3308F0A95DA193009779F7B11166
:1005C000B1931192CB010C94E502DC01FC01672F81
:1005D00071917723E1F7329704C07C916D9370831A
:0E05E0006291AE17BF07C8F30895F894FFCFDD
:1005EE0000007A002000203C2D2D496E7465676551
:0605FE0072006465660056
:00000001FF
